{
 "_format": "hh-sol-artifact-1",
 "contractName": "Etherexchange",
 "sourceName": "contracts/Etherexchange.sol",
 "abi": [
  {
   "inputs": [
    {
     "internalType": "contract Mkhuetoken",
     "name": "_token",
     "type": "address"
    }
   ],
   "stateMutability": "nonpayable",
   "type": "constructor"
  },
  {
   "anonymous": false,
   "inputs": [
    {
     "indexed": false,
     "internalType": "address",
     "name": "account",
     "type": "address"
    },
    {
     "indexed": false,
     "internalType": "address",
     "name": "Token",
     "type": "address"
    },
    {
     "indexed": false,
     "internalType": "uint256",
     "name": "amount",
     "type": "uint256"
    },
    {
     "indexed": false,
     "internalType": "uint256",
     "name": "rate",
     "type": "uint256"
    }
   ],
   "name": "TokensSold",
   "type": "event"
  },
  {
   "anonymous": false,
   "inputs": [
    {
     "indexed": false,
     "internalType": "address",
     "name": "account",
     "type": "address"
    },
    {
     "indexed": false,
     "internalType": "address",
     "name": "Token",
     "type": "address"
    },
    {
     "indexed": false,
     "internalType": "uint256",
     "name": "amount",
     "type": "uint256"
    },
    {
     "indexed": false,
     "internalType": "uint256",
     "name": "rate",
     "type": "uint256"
    }
   ],
   "name": "Tokenspurchased",
   "type": "event"
  },
  {
   "inputs": [],
   "name": "purchasetoken",
   "outputs": [],
   "stateMutability": "payable",
   "type": "function"
  },
  {
   "inputs": [
    {
     "internalType": "uint256",
     "name": "_amount",
     "type": "uint256"
    }
   ],
   "name": "selltoken",
   "outputs": [],
   "stateMutability": "nonpayable",
   "type": "function"
  },
  {
   "inputs": [],
   "name": "token",
   "outputs": [
    {
     "internalType": "contract Mkhuetoken",
     "name": "",
     "type": "address"
    }
   ],
   "stateMutability": "view",
   "type": "function"
  }
 ],
 "bytecode": "0x6080604052600a60035534801561001557600080fd5b50604051610a36380380610a36833981810160405281019061003791906100d4565b33600260006101000a81548173ffffffffffffffffffffffffffffffffffffffff021916908373ffffffffffffffffffffffffffffffffffffffff16021790555080600160006101000a81548173ffffffffffffffffffffffffffffffffffffffff021916908373ffffffffffffffffffffffffffffffffffffffff16021790555050610158565b6000815190506100ce81610141565b92915050565b6000602082840312156100e657600080fd5b60006100f4848285016100bf565b91505092915050565b600061010882610121565b9050919050565b600061011a826100fd565b9050919050565b600073ffffffffffffffffffffffffffffffffffffffff82169050919050565b61014a8161010f565b811461015557600080fd5b50565b6108cf806101676000396000f3fe6080604052600436106100345760003560e01c806393316cdf14610039578063c28716d014610062578063fc0c546a1461006c575b600080fd5b34801561004557600080fd5b50610060600480360381019061005b91906104eb565b610097565b005b61006a61024a565b005b34801561007857600080fd5b5061008161045d565b60405161008e91906106aa565b60405180910390f35b6000600354826100a79190610716565b9050804710156100ec576040517f08c379a00000000000000000000000000000000000000000000000000000000081526004016100e3906106c5565b60405180910390fd5b600160009054906101000a900473ffffffffffffffffffffffffffffffffffffffff1673ffffffffffffffffffffffffffffffffffffffff166323b872dd3330856040518463ffffffff1660e01b815260040161014b93929190610605565b602060405180830381600087803b15801561016557600080fd5b505af1158015610179573d6000803e3d6000fd5b505050506040513d601f19601f8201168201806040525081019061019d91906104c2565b503373ffffffffffffffffffffffffffffffffffffffff166108fc829081150290604051600060405180830381858888f193505050501580156101e4573d6000803e3d6000fd5b507f697c42d55a5e1fed3f464ec6f38b32546a0bd368dc8068b065c67566d73f329033600160009054906101000a900473ffffffffffffffffffffffffffffffffffffffff168360035460405161023e949392919061063c565b60405180910390a15050565b60006003543461025a9190610747565b905080600160009054906101000a900473ffffffffffffffffffffffffffffffffffffffff1673ffffffffffffffffffffffffffffffffffffffff166370a08231306040518263ffffffff1660e01b81526004016102b891906105ea565b60206040518083038186803b1580156102d057600080fd5b505afa1580156102e4573d6000803e3d6000fd5b505050506040513d601f19601f820116820180604052508101906103089190610514565b1015610349576040517f08c379a0000000000000000000000000000000000000000000000000000000008152600401610340906106e5565b60405180910390fd5b600160009054906101000a900473ffffffffffffffffffffffffffffffffffffffff1673ffffffffffffffffffffffffffffffffffffffff1663a9059cbb33836040518363ffffffff1660e01b81526004016103a6929190610681565b602060405180830381600087803b1580156103c057600080fd5b505af11580156103d4573d6000803e3d6000fd5b505050506040513d601f19601f820116820180604052508101906103f891906104c2565b507f2af3afbd7fff7ae6080dc777352c737897df1677d6465318c199f9745e1e5af333600160009054906101000a900473ffffffffffffffffffffffffffffffffffffffff1683600354604051610452949392919061063c565b60405180910390a150565b600160009054906101000a900473ffffffffffffffffffffffffffffffffffffffff1681565b6000815190506104928161086b565b92915050565b6000813590506104a781610882565b92915050565b6000815190506104bc81610882565b92915050565b6000602082840312156104d457600080fd5b60006104e284828501610483565b91505092915050565b6000602082840312156104fd57600080fd5b600061050b84828501610498565b91505092915050565b60006020828403121561052657600080fd5b6000610534848285016104ad565b91505092915050565b610546816107a1565b82525050565b610555816107e9565b82525050565b6000610568601283610705565b91507f496e73756666696369656e742046756e647300000000000000000000000000006000830152602082019050919050565b60006105a8601183610705565b91507f496e737566696369656e742046756e64730000000000000000000000000000006000830152602082019050919050565b6105e4816107df565b82525050565b60006020820190506105ff600083018461053d565b92915050565b600060608201905061061a600083018661053d565b610627602083018561053d565b61063460408301846105db565b949350505050565b6000608082019050610651600083018761053d565b61065e602083018661053d565b61066b60408301856105db565b61067860608301846105db565b95945050505050565b6000604082019050610696600083018561053d565b6106a360208301846105db565b9392505050565b60006020820190506106bf600083018461054c565b92915050565b600060208201905081810360008301526106de8161055b565b9050919050565b600060208201905081810360008301526106fe8161059b565b9050919050565b600082825260208201905092915050565b6000610721826107df565b915061072c836107df565b92508261073c5761073b61083c565b5b828204905092915050565b6000610752826107df565b915061075d836107df565b9250817fffffffffffffffffffffffffffffffffffffffffffffffffffffffffffffffff04831182151516156107965761079561080d565b5b828202905092915050565b60006107ac826107bf565b9050919050565b60008115159050919050565b600073ffffffffffffffffffffffffffffffffffffffff82169050919050565b6000819050919050565b60006107f4826107fb565b9050919050565b6000610806826107bf565b9050919050565b7f4e487b7100000000000000000000000000000000000000000000000000000000600052601160045260246000fd5b7f4e487b7100000000000000000000000000000000000000000000000000000000600052601260045260246000fd5b610874816107b3565b811461087f57600080fd5b50565b61088b816107df565b811461089657600080fd5b5056fea264697066735822122047637920d94b2209b815b493e195f21ed531ebff724b795ddc7b62e102bc4ae664736f6c63430008000033",
 "linkReferences": {},
 "deployedLinkReferences": {}
}